{
  "contractName": "SimpleVoting",
  "abi": [
    {
      "constant": true,
      "inputs": [
        {
          "name": "",
          "type": "uint256"
        }
      ],
      "name": "proposals",
      "outputs": [
        {
          "name": "description",
          "type": "string"
        },
        {
          "name": "voteCount",
          "type": "uint256"
        }
      ],
      "payable": false,
      "stateMutability": "view",
      "type": "function"
    },
    {
      "constant": true,
      "inputs": [
        {
          "name": "",
          "type": "address"
        }
      ],
      "name": "voters",
      "outputs": [
        {
          "name": "isRegistered",
          "type": "bool"
        },
        {
          "name": "hasVoted",
          "type": "bool"
        },
        {
          "name": "votedProposalId",
          "type": "uint256"
        }
      ],
      "payable": false,
      "stateMutability": "view",
      "type": "function"
    },
    {
      "constant": true,
      "inputs": [],
      "name": "currentStatus",
      "outputs": [
        {
          "name": "",
          "type": "uint8"
        }
      ],
      "payable": false,
      "stateMutability": "view",
      "type": "function"
    },
    {
      "constant": true,
      "inputs": [],
      "name": "admin",
      "outputs": [
        {
          "name": "",
          "type": "address"
        }
      ],
      "payable": false,
      "stateMutability": "view",
      "type": "function"
    },
    {
      "inputs": [],
      "payable": false,
      "stateMutability": "nonpayable",
      "type": "constructor"
    },
    {
      "anonymous": false,
      "inputs": [
        {
          "indexed": false,
          "name": "voterAddress",
          "type": "address"
        }
      ],
      "name": "VoterRegisteredEvent",
      "type": "event"
    },
    {
      "anonymous": false,
      "inputs": [],
      "name": "ProposalsRegistrationStartedEvent",
      "type": "event"
    },
    {
      "anonymous": false,
      "inputs": [],
      "name": "ProposalsRegistrationEndedEvent",
      "type": "event"
    },
    {
      "anonymous": false,
      "inputs": [
        {
          "indexed": false,
          "name": "proposalId",
          "type": "uint256"
        }
      ],
      "name": "ProposalRegisteredEvent",
      "type": "event"
    },
    {
      "anonymous": false,
      "inputs": [],
      "name": "VotingSessionStartedEvent",
      "type": "event"
    },
    {
      "anonymous": false,
      "inputs": [],
      "name": "VotingSessionEndedEvent",
      "type": "event"
    },
    {
      "anonymous": false,
      "inputs": [
        {
          "indexed": false,
          "name": "voter",
          "type": "address"
        },
        {
          "indexed": false,
          "name": "proposalId",
          "type": "uint256"
        }
      ],
      "name": "VotedEvent",
      "type": "event"
    },
    {
      "anonymous": false,
      "inputs": [],
      "name": "VotesTalliedEvent",
      "type": "event"
    },
    {
      "anonymous": false,
      "inputs": [
        {
          "indexed": false,
          "name": "previousStatus",
          "type": "uint8"
        },
        {
          "indexed": false,
          "name": "newStatus",
          "type": "uint8"
        }
      ],
      "name": "WorkflowStatusChangeEvent",
      "type": "event"
    },
    {
      "constant": false,
      "inputs": [
        {
          "name": "_voter",
          "type": "address"
        }
      ],
      "name": "registerVoter",
      "outputs": [],
      "payable": false,
      "stateMutability": "nonpayable",
      "type": "function"
    },
    {
      "constant": false,
      "inputs": [],
      "name": "startProposalRegistration",
      "outputs": [],
      "payable": false,
      "stateMutability": "nonpayable",
      "type": "function"
    },
    {
      "constant": false,
      "inputs": [
        {
          "name": "proposal",
          "type": "string"
        }
      ],
      "name": "registerProposal",
      "outputs": [],
      "payable": false,
      "stateMutability": "nonpayable",
      "type": "function"
    },
    {
      "constant": false,
      "inputs": [],
      "name": "endProposalRegistration",
      "outputs": [],
      "payable": false,
      "stateMutability": "nonpayable",
      "type": "function"
    },
    {
      "constant": false,
      "inputs": [],
      "name": "startVotingSession",
      "outputs": [],
      "payable": false,
      "stateMutability": "nonpayable",
      "type": "function"
    },
    {
      "constant": false,
      "inputs": [
        {
          "name": "proposalId",
          "type": "uint256"
        }
      ],
      "name": "vote",
      "outputs": [],
      "payable": false,
      "stateMutability": "nonpayable",
      "type": "function"
    },
    {
      "constant": false,
      "inputs": [],
      "name": "endVotingSession",
      "outputs": [],
      "payable": false,
      "stateMutability": "nonpayable",
      "type": "function"
    },
    {
      "constant": false,
      "inputs": [],
      "name": "tallyVotes",
      "outputs": [],
      "payable": false,
      "stateMutability": "nonpayable",
      "type": "function"
    },
    {
      "constant": true,
      "inputs": [],
      "name": "getProposalsNumber",
      "outputs": [
        {
          "name": "",
          "type": "uint256"
        }
      ],
      "payable": false,
      "stateMutability": "view",
      "type": "function"
    },
    {
      "constant": true,
      "inputs": [
        {
          "name": "index",
          "type": "uint256"
        }
      ],
      "name": "getProposalDescription",
      "outputs": [
        {
          "name": "",
          "type": "string"
        }
      ],
      "payable": false,
      "stateMutability": "view",
      "type": "function"
    },
    {
      "constant": true,
      "inputs": [],
      "name": "getWinningProposalId",
      "outputs": [
        {
          "name": "",
          "type": "uint256"
        }
      ],
      "payable": false,
      "stateMutability": "view",
      "type": "function"
    },
    {
      "constant": true,
      "inputs": [],
      "name": "getWinningProposalDescription",
      "outputs": [
        {
          "name": "",
          "type": "string"
        }
      ],
      "payable": false,
      "stateMutability": "view",
      "type": "function"
    },
    {
      "constant": true,
      "inputs": [],
      "name": "getWinningProposalVoteCounts",
      "outputs": [
        {
          "name": "",
          "type": "uint256"
        }
      ],
      "payable": false,
      "stateMutability": "view",
      "type": "function"
    },
    {
      "constant": true,
      "inputs": [
        {
          "name": "_voterAddress",
          "type": "address"
        }
      ],
      "name": "isRegisteredVoter",
      "outputs": [
        {
          "name": "",
          "type": "bool"
        }
      ],
      "payable": false,
      "stateMutability": "view",
      "type": "function"
    },
    {
      "constant": true,
      "inputs": [
        {
          "name": "_address",
          "type": "address"
        }
      ],
      "name": "isAdministrator",
      "outputs": [
        {
          "name": "",
          "type": "bool"
        }
      ],
      "payable": false,
      "stateMutability": "view",
      "type": "function"
    },
    {
      "constant": true,
      "inputs": [],
      "name": "getWorkflowStatus",
      "outputs": [
        {
          "name": "",
          "type": "uint8"
        }
      ],
      "payable": false,
      "stateMutability": "view",
      "type": "function"
    }
  ],
  "bytecode": "0x608060405234801561001057600080fd5b50336000806101000a81548173ffffffffffffffffffffffffffffffffffffffff021916908373ffffffffffffffffffffffffffffffffffffffff1602179055506000600260006101000a81548160ff0219169083600581111561007057fe5b02179055506124ad806100846000396000f300608060405260043610610112576000357c0100000000000000000000000000000000000000000000000000000000900463ffffffff1680630121b93f14610117578063013cf08b146101445780630a2eb301146101f15780630f7e28381461024c5780631af8690914610263578063229acb171461028e5780632f95355b14610334578063378a21781461039d57806337d05ddc146103b457806338db6dd31461044457806341b1b04614610487578063a3ec138d146104b2578063a7bfab161461051f578063da36cffe14610536578063e81e977b14610591578063e85a8f2a146105bc578063ee74c678146105d3578063ef8a9235146105ea578063f75d64a614610623578063f851a4401461065c575b600080fd5b34801561012357600080fd5b50610142600480360381019080803590602001909291905050506106b3565b005b34801561015057600080fd5b5061016f60048036038101908080359060200190929190505050610a63565b6040518080602001838152602001828103825284818151815260200191508051906020019080838360005b838110156101b557808201518184015260208101905061019a565b50505050905090810190601f1680156101e25780820380516001836020036101000a031916815260200191505b50935050505060405180910390f35b3480156101fd57600080fd5b50610232600480360381019080803573ffffffffffffffffffffffffffffffffffffffff169060200190929190505050610b2e565b604051808215151515815260200191505060405180910390f35b34801561025857600080fd5b50610261610b87565b005b34801561026f57600080fd5b50610278610e17565b6040518082815260200191505060405180910390f35b34801561029a57600080fd5b506102b960048036038101908080359060200190929190505050610f03565b6040518080602001828103825283818151815260200191508051906020019080838360005b838110156102f95780820151818401526020810190506102de565b50505050905090810190601f1680156103265780820380516001836020036101000a031916815260200191505b509250505060405180910390f35b34801561034057600080fd5b5061039b600480360381019080803590602001908201803590602001908080601f0160208091040260200160405190810160405280939291908181526020018383808284378201915050505050509192919290505050610fc5565b005b3480156103a957600080fd5b506103b2611221565b005b3480156103c057600080fd5b506103c9611536565b6040518080602001828103825283818151815260200191508051906020019080838360005b838110156104095780820151818401526020810190506103ee565b50505050905090810190601f1680156104365780820380516001836020036101000a031916815260200191505b509250505060405180910390f35b34801561045057600080fd5b50610485600480360381019080803573ffffffffffffffffffffffffffffffffffffffff1690602001909291905050506116ba565b005b34801561049357600080fd5b5061049c611ab5565b6040518082815260200191505060405180910390f35b3480156104be57600080fd5b506104f3600480360381019080803573ffffffffffffffffffffffffffffffffffffffff169060200190929190505050611ac2565b604051808415151515815260200183151515158152602001828152602001935050505060405180910390f35b34801561052b57600080fd5b50610534611b06565b005b34801561054257600080fd5b50610577600480360381019080803573ffffffffffffffffffffffffffffffffffffffff169060200190929190505050611d70565b604051808215151515815260200191505060405180910390f35b34801561059d57600080fd5b506105a6611dc9565b6040518082815260200191505060405180910390f35b3480156105c857600080fd5b506105d1611e95565b005b3480156105df57600080fd5b506105e86120fe565b005b3480156105f657600080fd5b506105ff61238d565b6040518082600581111561060f57fe5b60ff16815260200191505060405180910390f35b34801561062f57600080fd5b506106386123a0565b6040518082600581111561064857fe5b60ff16815260200191505060405180910390f35b34801561066857600080fd5b506106716123b7565b604051808273ffffffffffffffffffffffffffffffffffffffff1673ffffffffffffffffffffffffffffffffffffffff16815260200191505060405180910390f35b600160003373ffffffffffffffffffffffffffffffffffffffff1673ffffffffffffffffffffffffffffffffffffffff16815260200190815260200160002060000160009054906101000a900460ff16151561079d576040517f08c379a00000000000000000000000000000000000000000000000000000000081526004018080602001828103825260368152602001807f7468652063616c6c6572206f6620746869732066756e6374696f6e206d75737481526020017f2062652061207265676973746572656420766f7465720000000000000000000081525060400191505060405180910390fd5b600360058111156107aa57fe5b600260009054906101000a900460ff1660058111156107c557fe5b141515610860576040517f08c379a000000000000000000000000000000000000000000000000000000000815260040180806020018281038252603a8152602001807f746869732066756e6374696f6e2063616e2062652063616c6c6564206f6e6c7981526020017f20647572696e672074686520766f74696e672073657373696f6e00000000000081525060400191505060405180910390fd5b600160003373ffffffffffffffffffffffffffffffffffffffff1673ffffffffffffffffffffffffffffffffffffffff16815260200190815260200160002060000160019054906101000a900460ff16151515610925576040517f08c379a000000000000000000000000000000000000000000000000000000000815260040180806020018281038252601c8152602001807f7468652063616c6c65722068617320616c726561647920766f7465640000000081525060200191505060405180910390fd5b60018060003373ffffffffffffffffffffffffffffffffffffffff1673ffffffffffffffffffffffffffffffffffffffff16815260200190815260200160002060000160016101000a81548160ff02191690831515021790555080600160003373ffffffffffffffffffffffffffffffffffffffff1673ffffffffffffffffffffffffffffffffffffffff1681526020019081526020016000206001018190555060016003828154811015156109d757fe5b9060005260206000209060020201600101600082825401925050819055507f0902475a854b82199b4f5d6b81327ec4c4ec077ce0356a106ddc2748c5285ed33382604051808373ffffffffffffffffffffffffffffffffffffffff1673ffffffffffffffffffffffffffffffffffffffff1681526020018281526020019250505060405180910390a150565b600381815481101515610a7257fe5b9060005260206000209060020201600091509050806000018054600181600116156101000203166002900480601f016020809104026020016040519081016040528092919081815260200182805460018160011615610100020316600290048015610b1e5780601f10610af357610100808354040283529160200191610b1e565b820191906000526020600020905b815481529060010190602001808311610b0157829003601f168201915b5050505050908060010154905082565b60008060009054906101000a900473ffffffffffffffffffffffffffffffffffffffff1673ffffffffffffffffffffffffffffffffffffffff168273ffffffffffffffffffffffffffffffffffffffff16149050919050565b6000809054906101000a900473ffffffffffffffffffffffffffffffffffffffff1673ffffffffffffffffffffffffffffffffffffffff163373ffffffffffffffffffffffffffffffffffffffff16141515610c71576040517f08c379a00000000000000000000000000000000000000000000000000000000081526004018080602001828103825260358152602001807f7468652063616c6c6572206f6620746869732066756e6374696f6e206d75737481526020017f206265207468652061646d696e6973747261746f72000000000000000000000081525060400191505060405180910390fd5b60006005811115610c7e57fe5b600260009054906101000a900460ff166005811115610c9957fe5b141515610d5a576040517f08c379a000000000000000000000000000000000000000000000000000000000815260040180806020018281038252604a8152602001807f746869732066756e6374696f6e2063616e2062652063616c6c6564206f6e6c7981526020017f206265666f72652070726f706f73616c7320726567697374726174696f6e206881526020017f617320737461727465640000000000000000000000000000000000000000000081525060600191505060405180910390fd5b6001600260006101000a81548160ff02191690836005811115610d7957fe5b02179055507f65b51a6e225dbda234ac3ca54831842456809aa60205dd84e758670106b4a6f360405160405180910390a17f9474022b1c97b70d3479aafe8672c447d1837ad99ae1f735eced168a65252d166000600260009054906101000a900460ff1660405180836005811115610ded57fe5b60ff168152602001826005811115610e0157fe5b60ff1681526020019250505060405180910390a1565b6000600580811115610e2557fe5b600260009054906101000a900460ff166005811115610e4057fe5b141515610edb576040517f08c379a000000000000000000000000000000000000000000000000000000000815260040180806020018281038252603e8152602001807f746869732066756e6374696f6e2063616e2062652063616c6c6564206f6e6c7981526020017f20616674657220766f7465732068617665206265656e2074616c6c696564000081525060400191505060405180910390fd5b6003600454815481101515610eec57fe5b906000526020600020906002020160010154905090565b6060600382815481101515610f1457fe5b90600052602060002090600202016000018054600181600116156101000203166002900480601f016020809104026020016040519081016040528092919081815260200182805460018160011615610100020316600290048015610fb95780601f10610f8e57610100808354040283529160200191610fb9565b820191906000526020600020905b815481529060010190602001808311610f9c57829003601f168201915b50505050509050919050565b600160003373ffffffffffffffffffffffffffffffffffffffff1673ffffffffffffffffffffffffffffffffffffffff16815260200190815260200160002060000160009054906101000a900460ff1615156110af576040517f08c379a00000000000000000000000000000000000000000000000000000000081526004018080602001828103825260368152602001807f7468652063616c6c6572206f6620746869732066756e6374696f6e206d75737481526020017f2062652061207265676973746572656420766f7465720000000000000000000081525060400191505060405180910390fd5b600160058111156110bc57fe5b600260009054906101000a900460ff1660058111156110d757fe5b141515611172576040517f08c379a000000000000000000000000000000000000000000000000000000000815260040180806020018281038252603e8152602001807f746869732066756e6374696f6e2063616e2062652063616c6c6564206f6e6c7981526020017f20647572696e672070726f706f73616c7320726567697374726174696f6e000081525060400191505060405180910390fd5b6003604080519081016040528083815260200160008152509080600181540180825580915050906001820390600052602060002090600202016000909192909190915060008201518160000190805190602001906111d19291906123dc565b50602082015181600101555050507fdcd2e8cd237900037efa515c36a3caa6812766647c16535dd5fc3c6fd641154c6001600380549050036040518082815260200191505060405180910390a150565b60008060008060009054906101000a900473ffffffffffffffffffffffffffffffffffffffff1673ffffffffffffffffffffffffffffffffffffffff163373ffffffffffffffffffffffffffffffffffffffff16141515611310576040517f08c379a00000000000000000000000000000000000000000000000000000000081526004018080602001828103825260358152602001807f7468652063616c6c6572206f6620746869732066756e6374696f6e206d75737481526020017f206265207468652061646d696e6973747261746f72000000000000000000000081525060400191505060405180910390fd5b6004600581111561131d57fe5b600260009054906101000a900460ff16600581111561133857fe5b1415156113f9576040517f08c379a00000000000000000000000000000000000000000000000000000000081526004018080602001828103825260438152602001807f746869732066756e6374696f6e2063616e2062652063616c6c6564206f6e6c7981526020017f2061667465722074686520766f74696e672073657373696f6e2068617320656e81526020017f646564000000000000000000000000000000000000000000000000000000000081525060600191505060405180910390fd5b6000925060009150600090505b60038054905081101561146f578260038281548110151561142357fe5b90600052602060002090600202016001015411156114625760038181548110151561144a57fe5b90600052602060002090600202016001015492508091505b8080600101915050611406565b816004819055506005600260006101000a81548160ff0219169083600581111561149557fe5b02179055507fa1f82a14ea162408785ef8969f7cf08b2bb72b081f8d4e2eda49846e52f439c660405160405180910390a17f9474022b1c97b70d3479aafe8672c447d1837ad99ae1f735eced168a65252d166004600260009054906101000a900460ff166040518083600581111561150957fe5b60ff16815260200182600581111561151d57fe5b60ff1681526020019250505060405180910390a1505050565b606060058081111561154457fe5b600260009054906101000a900460ff16600581111561155f57fe5b1415156115fa576040517f08c379a000000000000000000000000000000000000000000000000000000000815260040180806020018281038252603e8152602001807f746869732066756e6374696f6e2063616e2062652063616c6c6564206f6e6c7981526020017f20616674657220766f7465732068617665206265656e2074616c6c696564000081525060400191505060405180910390fd5b600360045481548110151561160b57fe5b90600052602060002090600202016000018054600181600116156101000203166002900480601f0160208091040260200160405190810160405280929190818152602001828054600181600116156101000203166002900480156116b05780601f10611685576101008083540402835291602001916116b0565b820191906000526020600020905b81548152906001019060200180831161169357829003601f168201915b5050505050905090565b6000809054906101000a900473ffffffffffffffffffffffffffffffffffffffff1673ffffffffffffffffffffffffffffffffffffffff163373ffffffffffffffffffffffffffffffffffffffff161415156117a4576040517f08c379a00000000000000000000000000000000000000000000000000000000081526004018080602001828103825260358152602001807f7468652063616c6c6572206f6620746869732066756e6374696f6e206d75737481526020017f206265207468652061646d696e6973747261746f72000000000000000000000081525060400191505060405180910390fd5b600060058111156117b157fe5b600260009054906101000a900460ff1660058111156117cc57fe5b14151561188d576040517f08c379a000000000000000000000000000000000000000000000000000000000815260040180806020018281038252604a8152602001807f746869732066756e6374696f6e2063616e2062652063616c6c6564206f6e6c7981526020017f206265666f72652070726f706f73616c7320726567697374726174696f6e206881526020017f617320737461727465640000000000000000000000000000000000000000000081525060600191505060405180910390fd5b600160008273ffffffffffffffffffffffffffffffffffffffff1673ffffffffffffffffffffffffffffffffffffffff16815260200190815260200160002060000160009054906101000a900460ff16151515611952576040517f08c379a000000000000000000000000000000000000000000000000000000000815260040180806020018281038252601f8152602001807f74686520766f74657220697320616c726561647920726567697374657265640081525060200191505060405180910390fd5b60018060008373ffffffffffffffffffffffffffffffffffffffff1673ffffffffffffffffffffffffffffffffffffffff16815260200190815260200160002060000160006101000a81548160ff0219169083151502179055506000600160008373ffffffffffffffffffffffffffffffffffffffff1673ffffffffffffffffffffffffffffffffffffffff16815260200190815260200160002060000160016101000a81548160ff0219169083151502179055506000600160008373ffffffffffffffffffffffffffffffffffffffff1673ffffffffffffffffffffffffffffffffffffffff168152602001908152602001600020600101819055507f42b360c89ba65a59ac7fec024a7bbb2c21d84b5abe5b5178ba0d7e34653a813081604051808273ffffffffffffffffffffffffffffffffffffffff1673ffffffffffffffffffffffffffffffffffffffff16815260200191505060405180910390a150565b6000600380549050905090565b60016020528060005260406000206000915090508060000160009054906101000a900460ff16908060000160019054906101000a900460ff16908060010154905083565b6000809054906101000a900473ffffffffffffffffffffffffffffffffffffffff1673ffffffffffffffffffffffffffffffffffffffff163373ffffffffffffffffffffffffffffffffffffffff16141515611bf0576040517f08c379a00000000000000000000000000000000000000000000000000000000081526004018080602001828103825260358152602001807f7468652063616c6c6572206f6620746869732066756e6374696f6e206d75737481526020017f206265207468652061646d696e6973747261746f72000000000000000000000081525060400191505060405180910390fd5b60036005811115611bfd57fe5b600260009054906101000a900460ff166005811115611c1857fe5b141515611cb3576040517f08c379a000000000000000000000000000000000000000000000000000000000815260040180806020018281038252603a8152602001807f746869732066756e6374696f6e2063616e2062652063616c6c6564206f6e6c7981526020017f20647572696e672074686520766f74696e672073657373696f6e00000000000081525060400191505060405180910390fd5b6004600260006101000a81548160ff02191690836005811115611cd257fe5b02179055507f86a7e3ed2917a2b5f100160b6e558c8e7ae6e4fb8f2673d860d3f11b4f345e7260405160405180910390a17f9474022b1c97b70d3479aafe8672c447d1837ad99ae1f735eced168a65252d166003600260009054906101000a900460ff1660405180836005811115611d4657fe5b60ff168152602001826005811115611d5a57fe5b60ff1681526020019250505060405180910390a1565b6000600160008373ffffffffffffffffffffffffffffffffffffffff1673ffffffffffffffffffffffffffffffffffffffff16815260200190815260200160002060000160009054906101000a900460ff169050919050565b6000600580811115611dd757fe5b600260009054906101000a900460ff166005811115611df257fe5b141515611e8d576040517f08c379a000000000000000000000000000000000000000000000000000000000815260040180806020018281038252603e8152602001807f746869732066756e6374696f6e2063616e2062652063616c6c6564206f6e6c7981526020017f20616674657220766f7465732068617665206265656e2074616c6c696564000081525060400191505060405180910390fd5b600454905090565b6000809054906101000a900473ffffffffffffffffffffffffffffffffffffffff1673ffffffffffffffffffffffffffffffffffffffff163373ffffffffffffffffffffffffffffffffffffffff16141515611f7f576040517f08c379a00000000000000000000000000000000000000000000000000000000081526004018080602001828103825260358152602001807f7468652063616c6c6572206f6620746869732066756e6374696f6e206d75737481526020017f206265207468652061646d696e6973747261746f72000000000000000000000081525060400191505060405180910390fd5b60016005811115611f8c57fe5b600260009054906101000a900460ff166005811115611fa757fe5b141515612042576040517f08c379a000000000000000000000000000000000000000000000000000000000815260040180806020018281038252603e8152602001807f746869732066756e6374696f6e2063616e2062652063616c6c6564206f6e6c7981526020017f20647572696e672070726f706f73616c7320726567697374726174696f6e000081525060400191505060405180910390fd5b60028060006101000a81548160ff0219169083600581111561206057fe5b02179055507ff629233eb3546085ffcbbb79c947a38b98b14a6915bcc004a0c1a34ae38c29d860405160405180910390a17f9474022b1c97b70d3479aafe8672c447d1837ad99ae1f735eced168a65252d166001600260009054906101000a900460ff16604051808360058111156120d457fe5b60ff1681526020018260058111156120e857fe5b60ff1681526020019250505060405180910390a1565b6000809054906101000a900473ffffffffffffffffffffffffffffffffffffffff1673ffffffffffffffffffffffffffffffffffffffff163373ffffffffffffffffffffffffffffffffffffffff161415156121e8576040517f08c379a00000000000000000000000000000000000000000000000000000000081526004018080602001828103825260358152602001807f7468652063616c6c6572206f6620746869732066756e6374696f6e206d75737481526020017f206265207468652061646d696e6973747261746f72000000000000000000000081525060400191505060405180910390fd5b600260058111156121f557fe5b600260009054906101000a900460ff16600581111561221057fe5b1415156122d1576040517f08c379a00000000000000000000000000000000000000000000000000000000081526004018080602001828103825260478152602001807f746869732066756e6374696f6e2063616e2062652063616c6c6564206f6e6c7981526020017f2061667465722070726f706f73616c7320726567697374726174696f6e20686181526020017f7320656e6465640000000000000000000000000000000000000000000000000081525060600191505060405180910390fd5b6003600260006101000a81548160ff021916908360058111156122f057fe5b02179055507ffca8377aff3a08252b769c58e6769a534922eabaaf9952691ea9cfcaed41fbd860405160405180910390a17f9474022b1c97b70d3479aafe8672c447d1837ad99ae1f735eced168a65252d1660028060009054906101000a900460ff166040518083600581111561236357fe5b60ff16815260200182600581111561237757fe5b60ff1681526020019250505060405180910390a1565b600260009054906101000a900460ff1681565b6000600260009054906101000a900460ff16905090565b6000809054906101000a900473ffffffffffffffffffffffffffffffffffffffff1681565b828054600181600116156101000203166002900490600052602060002090601f016020900481019282601f1061241d57805160ff191683800117855561244b565b8280016001018555821561244b579182015b8281111561244a57825182559160200191906001019061242f565b5b509050612458919061245c565b5090565b61247e91905b8082111561247a576000816000905550600101612462565b5090565b905600a165627a7a72305820dbc9ddbb75f934ef792bcfee8e997b41c6e7dd39c85468a60227cbefbd286a530029",
  "source": "pragma solidity >=0.4.21 <0.6.0;\n\ncontract SimpleVoting {\n\n    address public admin;\n    mapping(address => Voter) public voters;\n    WorkflowStatus public currentStatus;\n    Proposal[] public proposals;\n    uint private winningProposalId;\n\n    event VoterRegisteredEvent (address voterAddress);\n    event ProposalsRegistrationStartedEvent ();\n    event ProposalsRegistrationEndedEvent ();\n    event ProposalRegisteredEvent(uint proposalId);\n    event VotingSessionStartedEvent ();\n    event VotingSessionEndedEvent ();\n    event VotedEvent (address voter, uint proposalId);\n    event VotesTalliedEvent ();\n\n    event WorkflowStatusChangeEvent (\n        WorkflowStatus previousStatus,\n        WorkflowStatus newStatus\n    );\n\n    constructor() public {\n        admin = msg.sender;\n        currentStatus = WorkflowStatus.RegisteringVoters;\n    }\n\n    function registerVoter(address _voter) onlyAdmin onlyDuringVotersRegistration public {\n        require(!voters[_voter].isRegistered, \"the voter is already registered\");\n        voters[_voter].isRegistered = true;\n        voters[_voter].hasVoted = false;\n        voters[_voter].votedProposalId = 0;\n\n        emit VoterRegisteredEvent(_voter);\n    }\n\n    //--- Proposals phase ---//\n    function startProposalRegistration() onlyAdmin onlyDuringVotersRegistration public {\n        currentStatus = WorkflowStatus.ProposalsRegistrationStarted;\n        emit ProposalsRegistrationStartedEvent();\n        emit WorkflowStatusChangeEvent(WorkflowStatus.RegisteringVoters, currentStatus);\n    }\n\n    function registerProposal(string proposal) onlyRegisteredVoter onlyDuringProposalsRegistration public {\n        proposals.push(Proposal({description : proposal, voteCount : 0}));\n        emit ProposalRegisteredEvent(proposals.length - 1);\n    }\n\n    function endProposalRegistration() onlyAdmin onlyDuringProposalsRegistration public {\n        currentStatus = WorkflowStatus.ProposalsRegistrationEnded;\n        emit ProposalsRegistrationEndedEvent();\n        emit WorkflowStatusChangeEvent(WorkflowStatus.ProposalsRegistrationStarted, currentStatus);\n    }\n\n    //--- Voting phase ---//\n    function startVotingSession() onlyAdmin onlyAfterProposalsRegistration public {\n        currentStatus = WorkflowStatus.VotingSessionStarted;\n        emit VotingSessionStartedEvent();\n        emit WorkflowStatusChangeEvent(WorkflowStatus.ProposalsRegistrationEnded, currentStatus);\n    }\n\n    function vote(uint proposalId) onlyRegisteredVoter onlyDuringVotingSession public {\n        require(!voters[msg.sender].hasVoted, \"the caller has already voted\");\n        voters[msg.sender].hasVoted = true;\n        voters[msg.sender].votedProposalId = proposalId;\n        proposals[proposalId].voteCount += 1;\n\n        emit VotedEvent(msg.sender, proposalId);\n    }\n\n    function endVotingSession() onlyAdmin onlyDuringVotingSession public {\n        currentStatus = WorkflowStatus.VotingSessionEnded;\n        emit VotingSessionEndedEvent();\n        emit WorkflowStatusChangeEvent(WorkflowStatus.VotingSessionStarted, currentStatus);\n    }\n\n    //--- Final phase ---//\n    function tallyVotes() onlyAdmin onlyAfterVotingSession public {\n        uint winningVoteCount = 0;\n        uint winningProposalIndex = 0;\n\n        for (uint i = 0; i < proposals.length; i++) {\n            if (proposals[i].voteCount > winningVoteCount) {\n                winningVoteCount = proposals[i].voteCount;\n                winningProposalIndex = i;\n            }\n        }\n\n        winningProposalId = winningProposalIndex;\n        currentStatus = WorkflowStatus.VotesTallied;\n\n        emit VotesTalliedEvent();\n        emit WorkflowStatusChangeEvent(\n            WorkflowStatus.VotingSessionEnded, currentStatus);\n    }\n\n    //--- Utility functions ---//\n    function getProposalsNumber() public view returns (uint) {\n        return proposals.length;\n    }\n\n    function getProposalDescription(uint index) public view returns (string) {\n        return proposals[index].description;\n    }\n\n    function getWinningProposalId() onlyAfterVotesTallied public view returns (uint) {\n        return winningProposalId;\n    }\n\n    function getWinningProposalDescription() onlyAfterVotesTallied public view returns (string) {\n        return proposals[winningProposalId].description;\n    }\n\n    function getWinningProposalVoteCounts() onlyAfterVotesTallied public view returns (uint) {\n        return proposals[winningProposalId].voteCount;\n    }\n\n    function isRegisteredVoter(address _voterAddress) public view returns (bool) {\n        return voters[_voterAddress].isRegistered;\n    }\n\n    function isAdministrator(address _address) public view returns (bool) {\n        return _address == admin;\n    }\n\n    function getWorkflowStatus() public view returns (WorkflowStatus) {\n        return currentStatus;\n    }\n\n    //--- Modifiers ---//\n    modifier onlyAdmin() {\n        require(msg.sender == admin,\n            \"the caller of this function must be the administrator\");\n        _;\n    }\n\n    modifier onlyRegisteredVoter() {\n        require(voters[msg.sender].isRegistered,\n            \"the caller of this function must be a registered voter\");\n        _;\n    }\n\n    modifier onlyDuringVotersRegistration() {\n        require(currentStatus == WorkflowStatus.RegisteringVoters,\n            \"this function can be called only before proposals registration has started\");\n        _;\n    }\n\n    modifier onlyDuringProposalsRegistration() {\n        require(currentStatus == WorkflowStatus.ProposalsRegistrationStarted,\n            \"this function can be called only during proposals registration\");\n        _;\n    }\n\n    modifier onlyAfterProposalsRegistration() {\n        require(currentStatus == WorkflowStatus.ProposalsRegistrationEnded,\n            \"this function can be called only after proposals registration has ended\");\n        _;\n    }\n\n    modifier onlyDuringVotingSession() {\n        require(currentStatus == WorkflowStatus.VotingSessionStarted,\n            \"this function can be called only during the voting session\");\n        _;\n    }\n\n    modifier onlyAfterVotingSession() {\n        require(currentStatus == WorkflowStatus.VotingSessionEnded,\n            \"this function can be called only after the voting session has ended\");\n        _;\n    }\n\n    modifier onlyAfterVotesTallied() {\n        require(currentStatus == WorkflowStatus.VotesTallied,\n            \"this function can be called only after votes have been tallied\");\n        _;\n    }\n\n    struct Voter {\n        bool isRegistered;\n        bool hasVoted;\n        uint votedProposalId;\n    }\n\n    struct Proposal {\n        string description;\n        uint voteCount;\n    }\n\n    enum WorkflowStatus {\n        RegisteringVoters,\n        ProposalsRegistrationStarted,\n        ProposalsRegistrationEnded,\n        VotingSessionStarted,\n\n        VotingSessionEnded,\n        VotesTallied\n    }\n\n}\n",
  "sourcePath": "/Users/evgeniia/work/eth/voting/contracts/SimpleVoting.sol",
  "compiler": {
    "name": "solc",
    "version": "0.4.25+commit.59dbf8f1.Emscripten.clang"
  },
  "schemaVersion": "2.0.2",
  "updatedAt": "2019-06-27T10:06:57.785Z"
}